:020000040800F2
:1000000000500020511E00082D1D0008331D00085F
:10001000391D00083F1D0008451D000800000000B4
:100020000000000000000000000000004B1D000860
:10003000571D000800000000631D00086F1D000828
:10004000991E0008991E0008991E0008991E0008B4
:10005000991E0008991E0008991E0008991E0008A4
:10006000991E0008991E0008991E0008991E000894
:10007000991E0008991E0008991E0008991E000884
:10008000991E0008991E0008991E0008991E000874
:10009000991E0008991E0008991E0008991E000864
:1000A000991E0008991E0008991E0008991E000854
:1000B0007D1D0008911D0008991E0008991E00086A
:1000C000991E0008991E0008991E0008991E000834
:1000D000991E0008991E0008A51D0008991E000819
:1000E000991E0008991E0008991E000800000000D3
:1000F0000000000000000000000000000000000000
:0C01000000000000000000005FF808F1A3
:10010C0010B5054C237833B9044B13B10448AFF345
:10011C0000800123237010BDB400002000000000FB
:10012C005052000808B5034B1BB103490348AFF309
:10013C00008008BD00000000B800002050520008EC
:10014C0080B58EB000AF914B1B68013B172B00F2B2
:10015C00FB8101A252F823F0C501000855050008E7
:10016C0055050008550500085505000855050008FB
:10017C0055050008550500085505000855050008EB
:10018C0055050008550500085505000855050008DB
:10019C0055050008550500085505000855050008CB
:1001AC00550500085505000809020008C30200089F
:1001BC00C903000881040008754B1B68754A82FB53
:1001CC0003129211DB17D31A734A1360734B1B681B
:1001DC00704A82FB03129211DB17D31A704A136018
:1001EC006A4B15221A606D4B1B681946002001F0F2
:1001FC001DFC4FF47A7001F0FDFBAEE105210120EE
:10020C0000F050FE0521022000F04CFE02210120DE
:10021C0000F048FE0321022000F044FE614B1B68F5
:10022C00012B39D15C4B1A683B1D5F49184604F011
:10023C00CFFB03469AB2391D4FF4FA735B4803F0B7
:10024C00C1FD574B1A683B1D5949184604F0C0FBB9
:10025C0003469AB2391D4FF4FA73544803F0B2FDB9
:10026C004FF47A7001F0C6FB4B4B1B68013B4A4ABA
:10027C0013604B4B1B68013B494A1360484B1B688E
:10028C00002B09DC4B4B1B68424A82FB0312921178
:10029C00DB17D31A424A1360474B1B68012B40F003
:1002AC005581444B1B681946002001F0BFFB374BAE
:1002BC0016221A604AE10521012000F0F3FD052108
:1002CC00022000F0EFFD0221012000F0EBFD0421E3
:1002DC00022000F0E7FD334B1B68012B47D12E4B5E
:1002EC001A683B1D3049184604F072FB03469AB25B
:1002FC00391D4FF4FA732D4803F064FD284B1A682E
:10030C003B1D2B49184604F063FB03469AB2391D7A
:10031C004FF4FA73254803F055FD4FF47A7001F051
:10032C0069FB1D4B1B68013B1B4A13601A4B1B6876
:10033C00002B09DC194B1B68164A82FB0312921125
:10034C00DB17D31A144A1360154B1B68013B144A74
:10035C001360134B1B68002B09DC0D4B1B680D4AFB
:10036C0082FB03129211DB17D31A0D4A1360124B46
:10037C001B68012B40F0EC80084B1B6819460020D1
:10038C0001F054FB014B17221A60E1E01800002029
:10039C001C000020D34D6210D80000202400002047
:1003AC00DC000020EC01002068520008CC02002088
:1003BC007852000820000020F401002005210120C3
:1003CC0000F070FD0521022000F06CFD03210120DE
:1003DC0000F068FD0221022000F064FD984B1B68C0
:1003EC00012B39D1974B1A683B1D9749184604F0DD
:1003FC00EFFA03469AB2391D4FF4FA73934803F09F
:10040C00E1FC934B1A683B1D9249184604F0E0FA44
:10041C0003469AB2391D4FF4FA738C4803F0D2FCA0
:10042C004FF47A7001F0E6FA864B1B68013B854A63
:10043C001360844B1B68002B09DC874B1B68874AB5
:10044C0082FB03129211DB17D31A7E4A1360804B86
:10045C001B68013B7E4A1360814B1B68012B79D1D1
:10046C007D4B1B681946002001F0E0FA7D4B1822E9
:10047C001A606FE00521012000F014FD0521022017
:10048C0000F010FD0421012000F00CFD02210220DF
:10049C0000F008FD6A4B1B68012B47D1694B1A68A9
:1004AC003B1D6949184604F093FA03469AB2391D6C
:1004BC004FF4FA73654803F085FC654B1A683B1DD5
:1004CC006449184604F084FA03469AB2391D4FF475
:1004DC00FA735E4803F076FC4FF47A7001F08AFAF6
:1004EC00584B1B68013B574A1360564B1B68002B3B
:1004FC0009DC5D4B1B68594A82FB03129211DB1716
:10050C00D31A504A1360524B1B68013B504A13607C
:10051C004F4B1B68002B09DC544B1B684F4A82FB6A
:10052C0003129211DB17D31A494A13604C4B1B6808
:10053C00012B11D14D4B1B681946002001F076FAA6
:10054C00484B15221A6007E000BF06E000BF04E02C
:10055C0000BF02E000BF00E000BF012000F004FE7D
:10056C000346012B51D13F4B1B68152B0BD03D4B38
:10057C001B68162B07D03B4B1B68172B03D0394B32
:10058C001B68182B3DD1374B0B221A600A21012016
:10059C0001F04CFA41F28831052001F047FA4FF492
:1005AC007A7001F027FA0221012000F07BFC022175
:1005BC00022000F077FC2C4B1B68284A82FB0312AC
:1005CC009211DB17D31A2A4A1360234B1B68234A58
:1005DC0082FB03129211DB17D31A264A1360234BAA
:1005EC001B681E4A82FB03129211DB17D31A224A94
:1005FC0013601F4B1B68134A1360154B02221A60C1
:10060C0019E0012000F0D2FD15E0002000F0ACFD57
:10061C000346012B0FD1194B01221A6042F21071C3
:10062C00022001F003FA6421032001F0FFF9642198
:10063C00042001F0FBF900BF3837BD4680BD00BF78
:10064C00EC010020D800002068520008CC020020E9
:10065C00DC0000207852000820000020D34D6210EE
:10066C00F4010020180000201C00002024000020B1
:10067C00380200203402002030020020D00000207C
:10068C0080B500AF144B1A68144B1B68D31A144A6C
:10069C001360114B1B68134A82FB03129211DB1778
:1006AC00D31A114A13600E4B1B680E4A82FB0312BD
:1006BC009211DB17D31A0D4A1360094B1B681946AC
:1006CC00002001F0B3F94FF47A7001F093F9084B64
:1006DC0015221A6000BF80BD1C00002020000020E5
:1006EC0024000020D34D6210D8000020DC00002034
:1006FC001800002080B58EB000AFAC4B1B680D2BE2
:10070C0000F029810D2B00F3C3810B2B03D00C2B94
:10071C0000F08B80BCE1A64B5B68012B0BD1FA215E
:10072C00012001F083F90221072000F029FB0221AE
:10073C00082000F025FB022000F016FD0346012BDB
:10074C0019D141F28831052001F070F9994B1B68E1
:10075C000133984A1360974B1B68632B06DD954B4E
:10076C0001221A60944B01221A6004E0924B1B6820
:10077C000133914A1360032000F0F6FC0346012B71
:10078C000CD141F28831052001F050F9894B1B68DE
:10079C004FF47A7202FB03F3884A1360012000F0D5
:1007AC00E3FC0346012B18D141F28831052001F0FE
:1007BC003DF90A21012001F039F97C4B0C221A6019
:1007CC007F4B1B687F4A82FB03129211DB17D31AF3
:1007DC00794A13607C4B03221A607C4B1B68012BFB
:1007EC0040F058814FF47A7001F004F9724B1A689A
:1007FC003B467749184604F0EBF803469AB2394663
:10080C004FF4FA73734803F0DDFA6F4B1A683B46EA
:10081C007149184604F0DCF803469AB239464FF495
:10082C00FA736C4803F0CEFA34E1614B5B68012B30
:10083C000BD1FA21012001F0F9F80421072000F076
:10084C009FFA0421082000F09BFA022000F08CFC97
:10085C000346012B19D141F28831052001F0E6F84D
:10086C005E4B1B6801335D4A13605C4B1B68632B4A
:10087C0006DD5A4B01221A604F4B01221A6004E02C
:10088C004D4B1B6801334C4A1360032000F06CFC89
:10089C000346012B18D141F28831052001F0C6F82E
:1008AC00474B1B687B634D4B1B684FF47A7202FB02
:1008BC0003F3434A1360424B1A68404B1B689A423D
:1008CC0002DB3F4A7B6B1360012000F04DFC0346BA
:1008DC00012B18D10A21012001F0A8F8334B0D226D
:1008EC001A603F4B1B68374A82FB03129211DB17CD
:1008FC00D31A314A1360344B04221A6041F2883106
:10090C00052001F093F8314B1B68012B40F0C4809B
:10091C004FF47A7001F06EF8274B1A683B462C495D
:10092C00184604F055F803469AB239464FF4FA7358
:10093C00284803F047FA244B1A683B4626491846C8
:10094C0004F046F803469AB239464FF4FA7321483C
:10095C0003F038FAA0E0164B5B68012B0BD1FA219F
:10096C00012001F063F80321072000F009FA0321AC
:10097C00082000F005FA022000F0F6FB0346012BDC
:10098C0037D141F28831052001F050F8154B1B6826
:10099C000133144A1360134B1B68632B24DD114B7A
:1009AC0001221A60044B01221A6022E01800002078
:1009BC00F401002038020020D80000201C00002088
:1009CC0020000020D34D6210DC000020EC01002040
:1009DC008C520008CC0200209C52000834020020EB
:1009EC002400002030020020384B1B680133374AAA
:1009FC001360032000F0B8FB0346012B19D141F220
:100A0C008831052001F012F8314B1B684FF47A72D3
:100A1C0002FB03F32F4A13602E4B1A682E4B1B68F4
:100A2C009A4206DA2C4B1A682A4B1B68D31A2B4AAB
:100A3C001360012000F098FB0346012B01D1FFF756
:100A4C001FFE274B1B68012B28D14FF47A7000F046
:100A5C00D1FF1E4B1A683B462249184603F0B8FFDB
:100A6C0003469AB239464FF4FA731F4803F0AAF9B9
:100A7C001E4B1A683B461E49184603F0A9FF034655
:100A8C009AB239464FF4FA73174803F09BF905E014
:100A9C0000BF04E000BF02E000BF00E000BF154B48
:100AAC001B680B2B07D0134B1B680C2B03D0114B63
:100ABC001B680D2B05D1104B5B69012B01D1FFF786
:100ACC00DFFD00BF3837BD4680BD00BFD800002019
:100ADC0030020020240000201C00002020000020F8
:100AEC00EC0100208C520008CC020020DC0000201D
:100AFC009C52000818000020F401002080B582B040
:100B0C0000AF7860044A7B68136001F08BF900BF7A
:100B1C000837BD4680BD00BFE000002080B582B024
:100B2C0000AF8E4B1B688E4A82FB03129211DB17AF
:100B3C009B1A05337B608B4B1B68032B39D0032B23
:100B4C0000F30081012B03D0022B00F0D680F9E0DA
:100B5C000020FFF7D3FF844B00221A600A210320E8
:100B6C0000F064FF0A21042000F060FF052000F073
:100B7C002DFA7E4B1B68012B40F0E6807C4B1B68EA
:100B8C00152B03D07A4B1B68162B03D1754B032204
:100B9C001A600AE0764B1B68182B03D0744B1B6849
:100BAC00172B02D16F4B02221A60704B00221A6075
:100BBC00CAE0032000F00AFA6E4B9B68012B03D1AC
:100BCC00684B01221A600AE0694B1B68182B03D092
:100BDC00674B1B68172B02D1624B02221A605F4BCA
:100BEC001B6841F28732934255DC614B1B68152B15
:100BFC002AD1614B1B687A689A4225DB5E4B1B68D5
:100C0C007A68D31A584A13605A4BDB68012B13D1FC
:100C1C00554B1B6801335B021846FFF76FFF524BB5
:100C2C001B68564A52F823301946032000F0FEFE8A
:100C3C001421042000F0FAFE4E4B1B69012B5BD1F2
:100C4C000020FFF75BFF57E0494B1B68162B7DD14B
:100C5C00484BDB68012B16D1474B1B68C3F10603CD
:100C6C005B021846FFF74AFF434B1B68C3F10503B1
:100C7C00424A52F823301946032000F0D7FE1421C3
:100C8C00042000F0D3FE3B4B1B69012B5ED10020EE
:100C9C00FFF734FF5AE0314B1B6841F28732934225
:100CAC0054DD334B1B68162B50D1334B1B68052B73
:100CBC004CDC304BDB68012B16D12F4B1B68C3F17E
:100CCC0006035B021846FFF719FF2B4B1B68C3F199
:100CDC0005032A4A52F823301946032000F0A6FED9
:100CEC001421042000F0A2FE224B1B69012B2DD1F4
:100CFC000020FFF703FF29E028E00020FFF7FEFEAD
:100D0C00194B00221A600A21032000F08FFE0A21E1
:100D1C00042000F08BFE022000F058F9154B9B6864
:100D2C00012B03D10F4B01221A6011E0104B1B68F1
:100D3C00152B03D00E4B1B68162B09D1094B032224
:100D4C001A6005E000BF04E000BF02E000BF00E055
:100D5C0000BF00BF0837BD4680BD00BF200000208B
:100D6C00D34D621000000020D4000020D0000020E1
:100D7C0018000020F4010020DC00002004000020FA
:100D8C0080B582B000AF786039607B68072B3CD1AE
:100D9C00424B1B68C3F10103404A13603B68042BB0
:100DAC0017D03B68042B70DC3B68022B03D03B68EC
:100DBC00032B1CD069E0394B1B68002B04D002219B
:100DCC00012000F06FF865E00521012000F06AF8C1
:100DDC0060E0324B1B68002B04D00421012000F092
:100DEC0061F857E00521012000F05CF852E02B4B34
:100DFC001B68002B04D00321012000F053F849E0BC
:100E0C000521012000F04EF844E07B68082B3ED110
:100E1C00234B1B68C3F10103214A13603B68042B6D
:100E2C0017D03B68042B34DC3B68022B03D03B68A7
:100E3C00032B1CD02DE01A4B1B68002B04D0022175
:100E4C00022000F02FF825E00521022000F02AF8FE
:100E5C0020E0134B1B68002B04D00421022000F06F
:100E6C0021F817E00521022000F01CF812E00C4BD1
:100E7C001B68002B04D00321022000F013F809E0BA
:100E8C000521022000F00EF804E000BF02E000BFD4
:100E9C0000E000BF00BF0837BD4680BDE400002065
:100EAC00E800002080B582B000AF786039607B68C4
:100EBC00012B3FD13B68023B032B79D801A252F89E
:100ECC0023F000BFE10E0008110F0008F90E000816
:100EDC00290F000810224FF480613A4801F095FB6D
:100EEC0000220821384801F090FB66E010224FF4F4
:100EFC008061344801F089FB10220821324801F04E
:100F0C0084FB5AE000224FF480612E4801F07DFBF7
:100F1C00102208212C4801F078FB4EE000224FF4FF
:100F2C008061284801F071FB00220821264801F05D
:100F3C006CFB42E07B68022B3CD13B68023B032BF1
:100F4C003AD801A252F823F0650F0008910F00085F
:100F5C007B0F0008A70F0008102220211A4801F06F
:100F6C0054FB00221021184801F04FFB25E0102201
:100F7C002021154801F049FB10221021124801F0E4
:100F8C0044FB1AE0002220210F4801F03EFB102206
:100F9C0010210D4801F039FB0FE0002220210A48F6
:100FAC0001F033FB00221021074801F02EFB04E076
:100FBC0000BF02E000BF00E000BF00BF0837BD4625
:100FCC0080BD00BF00080140000C014080B582B01C
:100FDC0000AF78607B68022B0CD110224FF480613B
:100FEC00164801F012FB00224FF48071144801F0F6
:100FFC000CFB1EE07B68032B0CD100224FF48061AC
:10100C000E4801F002FB10224FF480710C4801F0E5
:10101C00FCFA0EE07B68052B0BD100224FF48061AB
:10102C00064801F0F2FA00224FF48071044801F0F6
:10103C00ECFA00BF0837BD4680BD00BF000C014074
:10104C000008014080B582B000AF00237B6073E0E4
:10105C003D4A7B68134419783C4A7B6813440A4622
:10106C001A703B4A7B6813441978374A7B681344DF
:10107C000A461A70374A7B6852F8232036497B6837
:10108C0031F813301946104601F0A8FA03461946F8
:10109C002F4A7B6813440A461A702C4A7B68134407
:1010AC001A7829497B680B441B789A4241D1264A0D
:1010BC007B6813441A7826497B680B441B789A4248
:1010CC0037D1234A7B6813441A7824497B680B4434
:1010DC001B789A4219D01E4A7B68134419781F4A10
:1010EC007B6813440A461A701C4A7B6813441B78AD
:1010FC00002B1ED11A4A7B68012142F82310194A91
:10110C007B68642142F8231013E0164A7B6852F87E
:10111C0023305A1E13497B6841F82320114A7B68FF
:10112C0052F82330002B04DC0C4A7B681344012258
:10113C001A707B6801337B607B68032B88DD00BFF2
:10114C0000BF0837BD4680BDF0000020F400002031
:10115C00EC000020340000202C000020280000208F
:10116C00F80000200801002080B483B000AF786044
:10117C007B68032B02DC7B68002B01DA00230DE07B
:10118C00094A7B6852F82330012B06D1064A7B684A
:10119C00002142F82310012300E0002318460C37ED
:1011AC00BD4680BC704700BFF800002080B483B0FF
:1011BC0000AF7860044A7B68012142F8231000BF1D
:1011CC000C37BD4680BC7047F800002080B500AFDE
:1011DC0000F05EFE00F05AF800F086F900F098F886
:1011EC0000F0E2F800F056F91F4801F085FE0021EE
:1011FC001E4801F02BFF0A21002000F017FC0A21E9
:10120C00012000F013FC0A21022000F00FFC0A213F
:10121C00032000F00BFC00F0E5F90122002114483A
:10122C0000F046FA01220021124800F041FA012296
:10123C000021114800F03CFA012200210F4800F077
:10124C0037FA012200210E4800F032FA0122002167
:10125C000C4800F02DFA012200210B4800F028FA6E
:10126C0000F090FBFCE700BF840200203C02002051
:10127C00791A0008D91A00080D1B00085110000833
:10128C00290B00084D0100080107000880B590B03B
:10129C0000AF07F1180328220021184603F090FB39
:1012AC003B1D00221A605A609A60DA601A610223B0
:1012BC00BB610123BB621023FB6202237B6300230F
:1012CC00BB634FF46013FB6307F11803184601F07E
:1012DC00B5F90346002B01D000F07EF90F237B609B
:1012EC000223BB600023FB604FF480633B6100234F
:1012FC007B613B1D0221184601F020FC0346002BAC
:10130C0001D000F069F900BF4037BD4680BD000038
:10131C0080B586B000AF07F1080300221A605A604E
:10132C009A60DA603B4600221A605A601D4B4FF0FF
:10133C0080421A601B4B41F6FF025A60194B002287
:10134C009A60184B6322DA60164B00221A61154B17
:10135C0000229A61134801F07FFD0346002B01D057
:10136C0000F03AF94FF48053BB6007F108031946BB
:10137C000C4802F0D7F80346002B01D000F02CF9F2
:10138C0000233B6000237B603B461946054802F076
:10139C0059FC0346002B01D000F01EF900BF183792
:1013AC00BD4680BD8402002080B58EB000AF07F131
:1013BC00280300221A605A609A60DA6007F1200351
:1013CC0000221A605A603B1D00221A605A609A6013
:1013DC00DA601A615A619A612C4B2D4A1A602B4BB8
:1013EC003F225A60294B00229A60284B40F2E73288
:1013FC00DA60264B00221A61244B00229A612348A2
:10140C0001F02AFD0346002B01D000F0E5F84FF463
:10141C008053BB6207F1280319461C4802F082F87E
:10142C000346002B01D000F0D7F8184801F0B6FDA8
:10143C000346002B01D000F0CFF800233B620023C1
:10144C007B6207F120031946104802F0FBFB0346B0
:10145C00002B01D000F0C0F860237B600023BB6040
:10146C000023FB6000237B613B1D002219460748CB
:10147C0001F096FF0346002B01D000F0ADF80348B5
:10148C0000F0CAFB00BF3837BD4680BD3C020020CF
:10149C000004004080B500AF114B124A1A60104B8B
:1014AC004FF416525A600E4B00229A600C4B0022DD
:1014BC00DA600B4B00221A61094B0C225A61084B63
:1014CC0000229A61064B0022DA61054802F02AFCE0
:1014DC000346002B01D000F07FF800BF80BD00BF99
:1014EC00CC0200200044004080B586B000AF07F16C
:1014FC00080300221A605A609A60DA602E4B9B69CE
:10150C002D4A43F0040393612B4B9B6903F00403B6
:10151C007B607B68284B9B69274A43F008039361E7
:10152C00254B9B6903F008033B603B6800224FF49A
:10153C008761224801F069F800224FF4A06120482D
:10154C0001F063F81323BB600023FB6001233B61B4
:10155C0007F1080319461A4800F0BCFE0123BB60D2
:10156C000023FB6001233B6107F108031946134874
:10157C0000F0B0FE4FF48763BB600123FB600023D7
:10158C003B6102237B6107F1080319460B4800F00D
:10159C00A1FE4FF4A063BB600123FB6000233B6101
:1015AC0002237B6107F108031946054800F092FEFF
:1015BC0000BF1837BD4680BD00100240000C014032
:1015CC000008014080B582B000AF786000F050F8A0
:1015DC0000BF0837BD4680BD80B400AF72B600BFF7
:1015EC00FEE7000080B483B000AF00237B6034E0E2
:1015FC001E497A6813469B0013449B000B4400223F
:10160C001A601A497A6813469B0013449B000B44DA
:10161C00043300221A6015497A6813469B00134460
:10162C009B000B44083300221A6010497A68134659
:10163C009B0013449B000B440C3300221A700B4983
:10164C007A6813469B0013449B000B4410334FF0F5
:10165C00FF321A607B6801337B607B68092BC7DD26
:10166C0000BF00BF0C37BD4680BC7047180100207E
:10167C0080B400AF0D4B1B68002B13D00B4B1B7BA6
:10168C00002B0FD1094B5B68002B04D0074B5B6818
:10169C00013B064A5360054B5B68002B02D1034BA0
:1016AC0001221A7300BFBD4680BC70471801002090
:1016BC00F0B593B000AFF860B9607A60002387F89A
:1016CC00473000233B640023BB63002387F847307B
:1016DC00D5E097F847206E4913469B0013449B00B6
:1016EC000B4404331B683A6C13443B643A6CBB6880
:1016FC009A4279D997F84720654913469B001344C1
:10170C009B000B4404331A683B6CD31ABA6813441D
:10171C00BB6397F84720396CBB68C91A5C48134601
:10172C009B0013449B00034404331960092387F87E
:10173C003F301BE097F83F305A1E97F83F10544843
:10174C000B469B000B449B001844514913469B00CD
:10175C0013449B000B4404461D460FCD0FC42B684D
:10176C00236097F83F30013B87F83F3097F83F20D4
:10177C0097F847309A42DDD897F84740BB6B002B5F
:10178C000CBF01230023DBB21D4600F023F90146F8
:10179C003F4A23469B0023449B001344FA681A607B
:1017AC003B4A23469B0023449B0013440433BA6BEF
:1017BC001A60374A23469B0023449B00134408338A
:1017CC007A681A60324A23469B0023449B001344D8
:1017DC000C332A461A702E4A23469B0023449B0046
:1017EC001344103319604FE097F8472028491346EB
:1017FC009B0013449B000B441B68002B3AD197F8B9
:10180C004740BA683B6CD51ABA683B6C9A420CBF1D
:10181C0001230023DBB21E4600F0DCF801461C4A13
:10182C0023469B0023449B001344FA681A60184A11
:10183C0023469B0023449B00134404331D60144A2D
:10184C0023469B0023449B00134408337A681A6098
:10185C000F4A23469B0023449B0013440C3332460F
:10186C001A700B4A23469B0023449B0013441033ED
:10187C00196009E097F84730013387F8473097F83B
:10188C004730092B7FF625AF4C37BD46F0BD00BF66
:10189C0018010020B0B489B000AF78607B68002BD1
:1018AC0068D00023FB7761E0FA7F354913469B0033
:1018BC0013449B000B4410331B687A689A4252D134
:1018CC00FB7F082B28D8FB7F5A1C2D4913469B0005
:1018DC0013449B000B441B68002B1DD0FB7F5A1C30
:1018EC00274913469B0013449B000B44043319688F
:1018FC00FA7F234813469B0013449B000344043394
:10190C001B68FA7F013219441D4813469B0013448F
:10191C009B00034404331960FB7FBB7717E0BB7F4C
:10192C005A1CB97F16480B469B000B449B0018446D
:10193C00134913469B0013449B000B4404461D465D
:10194C000FCD0FC42B682360BB7F0133BB77BB7FEC
:10195C00082BE4D90A4BB43300221A605A609A60FF
:10196C00DA601A6107E0FB7F0133FB77FB7F092B01
:10197C009AD900E000BF2437BD46B0BC704700BF09
:10198C0018010020B0B586B000AF114B1B7B002BAB
:10199C0019D00F4B1B6898470D4B00221A730C4B38
:1019AC003C1D1D460FCD0FC42B6823607B69184668
:1019BC00FFF770FFFB68002B05D07B68F968FA68AD
:1019CC001846FFF775FE00BF1837BD46B0BD00BF07
:1019DC001801002080B400AF054B1B680133044A8A
:1019EC001360034B1B681846BD4680BC704700BF94
:1019FC00E001002080B483B000AF78607B68084AB7
:101A0C0082FB03129210DB17D31A064A1360064BA3
:101A1C0000221A6000BF0C37BD4680BC704700BF67
:101A2C0067666666F0010020EC01002080B483B08C
:101A3C0000AF786039603B68094A82FB0312921050
:101A4C00DB17D21A07497B6841F82320064A7B68CA
:101A5C00002142F8231000BF0C37BD4680BC7047F4
:101A6C00676666660C020020F401002080B483B027
:101A7C0000AF00237B601CE0124A7B6852F82330D5
:101A8C00002B13DD0F4A7B6852F823305A1E0D4988
:101A9C007B6841F823200B4A7B6852F82330002BDB
:101AAC0004DC094A7B68012142F823107B6801336E
:101ABC007B607B68052BDFDD00BF00BF0C37BD46AC
:101ACC0080BC70470C020020F401002080B400AFF1
:101ADC00094B1B68002B0BDD074B1B68013B064AAF
:101AEC001360054B1B68002B02DC044B01221A60AF
:101AFC0000BFBD4680BC7047F0010020EC01002007
:101B0C0080B400AF094B1B68002B0BDD074B1B6827
:101B1C00013B064A1360054B1B68002B02DC044B8F
:101B2C0001221A6000BFBD4680BC7047E80100204E
:101B3C00E401002080B485B000AF154B9B69144ABA
:101B4C0043F001039361124B9B6903F00103BB60EB
:101B5C00BB680F4BDB690E4A43F08053D3610C4BCF
:101B6C00DB6903F080537B607B680A4B5B68FB602E
:101B7C00FB6823F0E063FB60FB6843F00073FB60E1
:101B8C00044AFB68536000BF1437BD4680BC7047E5
:101B9C00001002400000014080B584B000AF7860B6
:101BAC007B681B68B3F1804F14D1194BDB69184A61
:101BBC0043F00103D361164BDB6903F00103FB60B7
:101BCC00FB68002200211C2000F09BFA1C2000F076
:101BDC00B4FA18E07B681B680E4A934213D10C4B85
:101BEC00DB690B4A43F00203D361094BDB6903F059
:101BFC000203BB60BB68002200211D2000F081FAAB
:101C0C001D2000F09AFA00BF1037BD4680BD00BF02
:101C1C00001002400004004080B588B000AF78602E
:101C2C0007F1100300221A605A609A60DA607B6830
:101C3C001B680F4A934217D10E4B9B690D4A43F018
:101C4C00040393610B4B9B6903F00403FB60FB687B
:101C5C0040233B6102237B610223FB6107F11003EC
:101C6C001946054800F036FB00BF2037BD4680BD45
:101C7C0000040040001002400008014080B588B00C
:101C8C0000AF786007F1100300221A605A609A6066
:101C9C00DA607B681B681F4A934237D11E4BDB69A5
:101CAC001D4A43F40033D3611B4BDB6903F400334F
:101CBC00FB60FB68184B9B69174A43F00403936164
:101CCC00154B9B6903F00403BB60BB6804233B61A9
:101CDC0002237B610323FB6107F1100319460F48B4
:101CEC0000F0F8FA08233B6100237B610023BB6101
:101CFC0007F110031946094800F0ECFA0022002104
:101D0C00262000F0FEF9262000F017FA00BF20373D
:101D1C00BD4680BD00440040001002400008014058
:101D2C0080B400AFFEE780B400AFFEE780B400AF34
:101D3C00FEE780B400AFFEE780B400AFFEE780B4EE
:101D4C0000AF00BFBD4680BC704780B400AF00BF81
:101D5C00BD4680BC704780B400AF00BFBD4680BCA0
:101D6C00704780B500AF00F0D9F800BF80BD00000F
:101D7C0080B500AF024801F00BFA00BF80BD00BF78
:101D8C008402002080B500AF024801F001FA00BFC8
:101D9C0080BD00BF3C02002080B500AF024802F0BD
:101DAC0095F800BF80BD00BFCC02002080B586B086
:101DBC0000AF7860144A154BD31A7B617B693B6189
:101DCC00134B1B68002B02D1114B124A1A60104B9B
:101DDC001A687B6813443A699A4207D202F0C6FD2E
:101DEC0003460C221A604FF0FF3309E0084B1B68C6
:101DFC00FB60074B1A687B681344054A1360FB6849
:101E0C0018461837BD4680BD005000200004000065
:101E1C00240200202803002080B400AF00BFBD4680
:101E2C0080BC704780B400AF044B1A68044B1B682D
:101E3C005A6300BFBD4680BC704700BFE000002065
:101E4C003C020020FFF7E8FF0B480C490C4A00232A
:101E5C0002E0D458C4500433C4188C42F9D3094A54
:101E6C00094C002301E013600432A242FBD302F0C0
:101E7C0083FDFFF7ABF9704700000020B400002091
:101E8C0018530008B400002028030020FEE70000CF
:101E9C0080B500AF084B1B68074A43F01003136072
:101EAC00032000F023F90F2000F008F8FFF742FEA2
:101EBC000023184680BD00BF0020024080B582B0D0
:101ECC0000AF7860124B1A68124B1B7819464FF40E
:101EDC007A73B3FBF1F3B2FBF3F3184600F03BF962
:101EEC000346002B01D001230EE07B680F2B0AD890
:101EFC00002279684FF0FF3000F003F9064A7B6846
:101F0C001360002300E0012318460837BD4680BD4E
:101F1C00440000204C0000204800002080B400AF9A
:101F2C00054B1B781A46054B1B681344034A136078
:101F3C0000BFBD4680BC70474C000020140300203D
:101F4C0080B400AF024B1B681846BD4680BC70477E
:101F5C001403002080B485B000AF78607B6803F078
:101F6C000703FB600C4BDB68BB60BA684FF6FF03E2
:101F7C001340BB60FB681A02BB68134343F0BF639A
:101F8C0043F40033BB60044ABB68D36000BF143712
:101F9C00BD4680BC704700BF00ED00E080B400AFD0
:101FAC00044BDB681B0A03F007031846BD4680BCD4
:101FBC00704700BF00ED00E080B483B000AF034673
:101FCC00FB7197F90730002B0BDBFB7903F01F0239
:101FDC00064997F907305B09012000FA02F241F833
:101FEC00232000BF0C37BD4680BC704700E100E0E9
:101FFC0080B483B000AF03463960FB7197F90730AA
:10200C00002B0ADB3B68DAB20C4997F90730120156
:10201C00D2B20B4483F800230AE03B68DAB20849D9
:10202C00FB7903F00F03043B1201D2B20B441A7676
:10203C0000BF0C37BD4680BC704700BF00E100E01C
:10204C0000ED00E080B489B000AFF860B9607A6050
:10205C00FB6803F00703FB61FB69C3F10703042B67
:10206C0028BF0423BB61FB690433062B02D9FB692F
:10207C00033B00E000237B614FF0FF32BB6902FAA7
:10208C0003F3DA43BB681A407B699A404FF0FF3187
:10209C007B6901FA03F3D9437B680B401343184661
:1020AC002437BD4680BC704780B582B000AF7860E5
:1020BC007B68013BB3F1807F01D301230FE00A4A17
:1020CC007B68013B53600F214FF0FF30FFF790FF0F
:1020DC00054B00229A60044B07221A600023184615
:1020EC000837BD4680BD00BF10E000E080B582B06F
:1020FC0000AF78607868FFF72DFF00BF0837BD464A
:10210C0080BD80B586B000AF0346B9607A60FB73C2
:10211C0000237B61FFF742FF78617A68B9687869C0
:10212C00FFF790FF024697F90F3011461846FFF75C
:10213C005FFF00BF1837BD4680BD80B582B000AFD1
:10214C000346FB7197F907301846FFF735FF00BFC0
:10215C000837BD4680BD80B582B000AF7860786826
:10216C00FFF7A2FF034618460837BD4680BD80B472
:10217C0085B000AF78600023FB737B6893F8213047
:10218C00DBB2022B08D07B6804229A637B680022A6
:10219C0083F82020012320E07B681B681A687B6889
:1021AC001B6822F00E021A607B681B681A687B6839
:1021BC001B6822F001021A607B681A6C7B68DB6B6F
:1021CC00012101FA02F25A607B68012283F8212076
:1021DC007B68002283F82020FB7B18461437BD4611
:1021EC0080BC704780B584B000AF78600023FB736F
:1021FC007B6893F82130DBB2022B05D07B6804227C
:10220C009A630123FB7351E07B681B681A687B6837
:10221C001B6822F00E021A607B681B681A687B68C8
:10222C001B6822F001021A607B681B68224A9342E9
:10223C0029D07B681B68214A934222D07B681B689B
:10224C001F4A93421AD07B681B681E4A934212D0D5
:10225C007B681B681C4A93420AD07B681B681B4A2C
:10226C00934202D14FF480130EE04FF080730BE0D9
:10227C004FF4803308E04FF4805305E04FF4807343
:10228C0002E0102300E00123114A53607B68012215
:10229C0083F821207B68002283F820207B685B6B0D
:1022AC00002B03D07B685B6B78689847FB7B1846E8
:1022BC001037BD4680BD00BF080002401C00024024
:1022CC003000024044000240580002406C000240C2
:1022DC000000024080B48BB000AF786039600023FE
:1022EC007B6200233B6269E101227B6A02FA03F301
:1022FC00FB613B681B68FA691340BB61BA69FB69F7
:10230C009A4240F058813B685B689A4A93425ED08F
:10231C00984A934275D8984A934258D0964A934219
:10232C006FD8964A934252D0944A934269D8944AB1
:10233C0093424CD0924A934263D8924A934246D0ED
:10234C00904A93425DD8122B2AD8122B59D801A24D
:10235C0052F823F0DB230008B5230008C72300083C
:10236C00092400080F2400080F2400080F2400087B
:10237C000F2400080F2400080F2400080F24000865
:10238C000F2400080F2400080F2400080F24000855
:10239C000F2400080F240008BD230008D1230008D7
:1023AC00794A934213D02CE03B68DB683B6229E00E
:1023BC003B68DB6804333B6224E03B68DB68083332
:1023CC003B621FE03B68DB680C333B621AE03B6806
:1023DC009B68002B02D104233B6213E03B689B6893
:1023EC00012B05D108233B627B68FA691A6109E06D
:1023FC0008233B627B68FA695A6103E000233B6265
:10240C0000E000BFBB69FF2B01D87B6801E07B6853
:10241C0004337B61BB69FF2B02D87B6A9B0002E013
:10242C007B6A083B9B003B617B691A680F213B6907
:10243C0001FA03F3DB431A40396A3B6901FA03F3EF
:10244C001A437B691A603B685B6803F08053002B6E
:10245C0000F0B1804D4B9B694C4A43F001039361F2
:10246C004A4B9B6903F00103BB60BB68484A7B6A1B
:10247C009B08023352F82330FB607B6A03F00303A2
:10248C009B000F2202FA03F3DB43FA681340FB6054
:10249C007B68404A934213D07B683F4A93420DD0ED
:1024AC007B683E4A934207D07B683D4A934201D1F8
:1024BC00032306E0042304E0022302E0012300E0EE
:1024CC0000237A6A02F0030292009340FA681343E5
:1024DC00FB602F497B6A9B080233FA6841F8232082
:1024EC003B685B6803F48013002B06D02D4B9A6875
:1024FC002C49BB6913438B6006E02A4B9A68BB6975
:10250C00DB43284913408B603B685B6803F4001382
:10251C00002B06D0234BDA682249BB691343CB60EE
:10252C0006E0204BDA68BB69DB431E491340CB60E5
:10253C003B685B6803F40033002B06D0194B5A68D8
:10254C001849BB6913434B6006E0164B5A68BB69CC
:10255C00DB43144913404B603B685B6803F48033E6
:10256C00002B21D00F4B1A680E49BB6913430B602B
:10257C0021E000BF000032100000311000002210DA
:10258C000000211000001210000011100010024079
:10259C000000014000080140000C01400010014007
:1025AC0000140140000401400B4B1A68BB69DB436B
:1025BC00094913400B607B6A01337B623B681A68E4
:1025CC007B6A22FA03F3002B7FF48EAE00BF00BFB0
:1025DC002C37BD4680BC70470004014080B485B0E8
:1025EC0000AF78600B467B807B689A687B881340D1
:1025FC00002B02D00123FB7301E00023FB73FB7B58
:10260C0018461437BD4680BC704780B483B000AF09
:10261C0078600B467B8013467B707B78002B03D055
:10262C007A887B681A6103E07B881A047B681A61DC
:10263C0000BF0C37BD4680BC7047000080B586B02B
:10264C0000AF78607B68002B01D101236CE27B68C2
:10265C001B6803F00103002B00F08780924B5B6832
:10266C0003F00C03042B0CD08F4B5B6803F00C03B2
:10267C00082B12D18C4B5B6803F48033B3F5803F8D
:10268C000BD1894B1B6803F40033002B6CD07B6897
:10269C005B68002B68D1012346E27B685B68B3F56D
:1026AC00803F06D1804B1B687F4A43F48033136014
:1026BC002EE07B685B68002B0CD17B4B1B687A4A45
:1026CC0023F480331360784B1B68774A23F4802300
:1026DC0013601DE07B685B68B3F5A02F0CD1724BC7
:1026EC001B68714A43F4802313606F4B1B686E4A5E
:1026FC0043F4803313600BE06B4B1B686A4A23F482
:10270C0080331360684B1B68674A23F48023136083
:10271C007B685B68002B13D0FFF712FC386108E074
:10272C00FFF70EFC02463B69D31A642B01D9032335
:10273C00FAE15D4B1B6803F40033002BF0D014E07E
:10274C00FFF7FEFB386108E0FFF7FAFB02463B6936
:10275C00D31A642B01D90323E6E1534B1B6803F412
:10276C000033002BF0D100E000BF7B681B6803F046
:10277C000203002B63D04C4B5B6803F00C03002B63
:10278C000BD0494B5B6803F00C03082B1CD1464B58
:10279C005B6803F48033002B16D1434B1B6803F0AA
:1027AC000203002B05D07B681B69012B01D0012390
:1027BC00BAE13D4B1B6823F0F8027B685B69DB00D8
:1027CC00394913430B603AE07B681B69002B20D01E
:1027DC00364B01221A60FFF7B3FB386108E0FFF7B4
:1027EC00AFFB02463B69D31A022B01D903239BE1B1
:1027FC002D4B1B6803F00203002BF0D02A4B1B68F7
:10280C0023F0F8027B685B69DB00274913430B60FC
:10281C0015E0264B00221A60FFF792FB386108E0A6
:10282C00FFF78EFB02463B69D31A022B01D9032317
:10283C007AE11D4B1B6803F00203002BF0D17B687F
:10284C001B6803F00803002B3AD07B689B69002BB4
:10285C0019D0174B01221A60FFF772FB386108E0A0
:10286C00FFF76EFB02463B69D31A022B01D90323F7
:10287C005AE10D4B5B6A03F00203002BF0D00120F0
:10288C0000F0CCFA1CE00A4B00221A60FFF758FB50
:10289C0038610FE0FFF754FB02463B69D31A022B59
:1028AC0008D9032340E100BF00100240000042425F
:1028BC00800442429E4B5B6A03F00203002BE9D179
:1028CC007B681B6803F00403002B00F0A680002338
:1028DC00FB75974BDB6903F08053002B0DD1944BA8
:1028EC00DB69934A43F08053D361914BDB6903F06E
:1028FC008053BB60BB680123FB758E4B1B6803F4D4
:10290C008073002B18D18B4B1B688A4A43F480735D
:10291C001360FFF715FB386108E0FFF711FB024667
:10292C003B69D31A642B01D90323FDE0814B1B684F
:10293C0003F48073002BF0D07B68DB68012B06D18D
:10294C007B4B1B6A7A4A43F0010313622DE07B68D0
:10295C00DB68002B0CD1764B1B6A754A23F0010304
:10296C001362734B1B6A724A23F0040313621CE05C
:10297C007B68DB68052B0CD16D4B1B6A6C4A43F0F2
:10298C00040313626A4B1B6A694A43F00103136226
:10299C000BE0674B1B6A664A23F001031362644B1E
:1029AC001B6A634A23F0040313627B68DB68002B09
:1029BC0015D0FFF7C5FA38610AE0FFF7C1FA0246F5
:1029CC003B69D31A41F28832934201D90323ABE01D
:1029DC00574B1B6A03F00203002BEED014E0FFF7F9
:1029EC00AFFA38610AE0FFF7ABFA02463B69D31A3B
:1029FC0041F28832934201D9032395E04C4B1B6A78
:102A0C0003F00203002BEED1FB7D012B05D1484BCB
:102A1C00DB69474A23F08053D3617B68DB69002B69
:102A2C0000F08180424B5B6803F00C03082B61D0F3
:102A3C007B68DB69022B46D13F4B00221A60FFF703
:102A4C007FFA386108E0FFF77BFA02463B69D31A3C
:102A5C00022B01D9032367E0354B1B6803F000738D
:102A6C00002BF0D17B681B6AB3F5803F08D1304B4B
:102A7C005B6823F400327B689B682D4913434B60E1
:102A8C002B4B5B6823F474127B68196A7B685B6A56
:102A9C000B43274913434B60274B01221A60FFF766
:102AAC004FFA386108E0FFF74BFA02463B69D31A3C
:102ABC00022B01D9032337E01D4B1B6803F0007375
:102ACC00002BF0D02FE01C4B00221A60FFF738FAD5
:102ADC00386108E0FFF734FA02463B69D31A022B3F
:102AEC0001D9032320E0124B1B6803F00073002B69
:102AFC00F0D118E07B68DB69012B01D1012313E0D5
:102B0C000B4B5B68FB60FB6803F480327B681B6AD1
:102B1C009A4206D1FB6803F470127B685B6A9A4296
:102B2C0001D0012300E0002318461837BD4680BDB4
:102B3C0000100240007000406000424280B584B03A
:102B4C0000AF786039607B68002B01D10123D0E0A5
:102B5C006A4B1B6803F007033A689A4210D9674B1B
:102B6C001B6823F0070265493B6813430B60634BFA
:102B7C001B6803F007033A689A4201D00123B8E0BE
:102B8C007B681B6803F00203002B20D07B681B685A
:102B9C0003F00403002B05D0594B5B68584A43F4EF
:102BAC00E06353607B681B6803F00803002B05D0BF
:102BBC00534B5B68524A43F460535360504B5B6811
:102BCC0023F0F0027B689B684D4913434B607B6894
:102BDC001B6803F00103002B40D07B685B68012B62
:102BEC0007D1474B1B6803F40033002B15D101238D
:102BFC007FE07B685B68022B07D1414B1B6803F0BD
:102C0C000073002B09D1012373E03D4B1B6803F0CB
:102C1C000203002B01D101236BE0394B5B6823F0DD
:102C2C0003027B685B68364913434B60FFF788F9F6
:102C3C00F8600AE0FFF784F90246FB68D31A41F208
:102C4C008832934201D9032353E02D4B5B6803F088
:102C5C000C027B685B689B009A42EBD1274B1B688C
:102C6C0003F007033A689A4210D2244B1B6823F0F6
:102C7C00070222493B6813430B60204B1B6803F08F
:102C8C0007033A689A4201D0012332E07B681B6843
:102C9C0003F00403002B08D0194B5B6823F4E062AB
:102CAC007B68DB68164913434B607B681B6803F039
:102CBC000803002B09D0124B5B6823F460527B682D
:102CCC001B69DB000E4913434B6000F021F80246F0
:102CDC000B4B5B681B0903F00F030A49CB5C22FA10
:102CEC0003F3094A1360094B1B681846FFF7E6F813
:102CFC00002318461037BD4680BD00BF002002409F
:102D0C0000100240B052000844000020480000208F
:102D1C0080B487B000AF0023FB600023BB600023AE
:102D2C007B6100237B6000233B611E4B5B68FB6077
:102D3C00FB6803F00C03042B02D0082B03D027E014
:102D4C00194B3B6127E0FB689B0C03F00F03174A00
:102D5C00D35C7B60FB6803F48033002B10D0114BE9
:102D6C005B685B0C03F00103114AD35CBB607B68AE
:102D7C000D4A02FB03F2BB68B2FBF3F37B6104E088
:102D8C007B680C4A02FB03F37B617B693B6102E0CD
:102D9C00054B3B6100BF3B6918461C37BD4680BCE8
:102DAC00704700BF0010024000127A00C8520008A1
:102DBC00D852000800093D0080B400AF024B1B68DC
:102DCC001846BD4680BC70474400002080B500AF5B
:102DDC00FFF7F2FF0246054B5B681B0A03F0070383
:102DEC000349CB5C22FA03F3184680BD0010024065
:102DFC00C052000880B500AFFFF7DEFF0246054B5E
:102E0C005B68DB0A03F007030349CB5C22FA03F38C
:102E1C00184680BD00100240C052000880B485B036
:102E2C0000AF78600A4B1B680A4AA2FB03235B0ABB
:102E3C007A6802FB03F3FB6000BFFB685A1EFA6062
:102E4C00002BF9D100BF00BF1437BD4680BC7047C2
:102E5C0044000020D34D621080B582B000AF786082
:102E6C007B68002B01D1012341E07B6893F83D3056
:102E7C00DBB2002B06D17B68002283F83C207868FB
:102E8C00FEF78AFE7B68022283F83D207B681A6875
:102E9C007B6804331946104600F030FC7B68012235
:102EAC0083F846207B68012283F83E207B68012250
:102EBC0083F83F207B68012283F840207B68012245
:102ECC0083F841207B68012283F842207B68012231
:102EDC0083F843207B68012283F844207B6801221D
:102EEC0083F845207B68012283F83D200023184697
:102EFC000837BD4680BD000080B485B000AF786057
:102F0C007B6893F83D30DBB2012B01D001233AE012
:102F1C007B68022283F83D207B681B68DA687B683B
:102F2C001B6842F00102DA607B681B68184A934206
:102F3C000ED07B681B68B3F1804F09D07B681B688F
:102F4C00144A934204D07B681B68134A934211D1F4
:102F5C007B681B689B6803F00703FB60FB68062B10
:102F6C0010D07B681B681A687B681B6842F00102F2
:102F7C001A6007E07B681B681A687B681B6842F064
:102F8C0001021A60002318461437BD4680BC7047F6
:102F9C00002C0140000400400008004080B582B0C5
:102FAC0000AF78607B68002B01D1012341E07B6886
:102FBC0093F83D30DBB2002B06D17B68002283F8FE
:102FCC003C20786800F039F87B68022283F83D20B9
:102FDC007B681A687B6804331946104600F08EFB38
:102FEC007B68012283F846207B68012283F83E200F
:102FFC007B68012283F83F207B68012283F8402004
:10300C007B68012283F841207B68012283F84220EF
:10301C007B68012283F843207B68012283F84420DB
:10302C007B68012283F845207B68012283F83D20D0
:10303C00002318460837BD4680BD80B483B000AF6E
:10304C00786000BF0C37BD4680BC704780B584B03B
:10305C0000AF786039603B68002B09D17B6893F82E
:10306C003E30DBB2012B14BF01230023DBB222E084
:10307C003B68042B09D17B6893F83F30DBB2012B02
:10308C0014BF01230023DBB215E03B68082B09D1E8
:10309C007B6893F84030DBB2012B14BF0123002373
:1030AC00DBB208E07B6893F84130DBB2012B14BF34
:1030BC0001230023DBB2002B01D001235EE03B682F
:1030CC00002B04D17B68022283F83E2013E03B687E
:1030DC00042B04D17B68022283F83F200BE03B6871
:1030EC00082B04D17B68022283F8402003E07B6824
:1030FC00022283F841207B681B680122396818463C
:10310C0000F07CFD7B681B681E4A934207D17B68EC
:10311C001B685A6C7B681B6842F400425A647B68DB
:10312C001B68184A93420ED07B681B68B3F1804F22
:10313C0009D07B681B68144A934204D07B681B68D7
:10314C00124A934211D17B681B689B6803F00703FA
:10315C00FB60FB68062B10D07B681B681A687B68C9
:10316C001B6842F001021A6007E07B681B681A6852
:10317C007B681B6842F001021A6000231846103766
:10318C00BD4680BD002C01400004004000080040FA
:10319C0080B582B000AF78607B681B681B6903F058
:1031AC000203022B22D17B681B68DB6803F002034D
:1031BC00022B1BD17B681B686FF002021A617B68C3
:1031CC0001221A777B681B689B6903F00303002BB1
:1031DC0003D0786800F076FA05E0786800F069FAB8
:1031EC00786800F078FA7B6800221A777B681B6895
:1031FC001B6903F00403042B22D17B681B68DB687A
:10320C0003F00403042B1BD17B681B686FF00402D2
:10321C001A617B6802221A777B681B689B6903F42E
:10322C004073002B03D0786800F04CFA05E0786806
:10323C0000F03FFA786800F04EFA7B6800221A77AB
:10324C007B681B681B6903F00803082B22D17B6881
:10325C001B68DB6803F00803082B1BD17B681B6819
:10326C006FF008021A617B6804221A777B681B686E
:10327C00DB6903F00303002B03D0786800F022FA1B
:10328C0005E0786800F015FA786800F024FA7B689D
:10329C0000221A777B681B681B6903F01003102B44
:1032AC0022D17B681B68DB6803F01003102B1BD149
:1032BC007B681B686FF010021A617B6808221A7712
:1032CC007B681B68DB6903F44073002B03D07868C0
:1032DC0000F0F8F905E0786800F0EBF9786800F098
:1032EC00FAF97B6800221A777B681B681B6903F06C
:1032FC000103012B0ED17B681B68DB6803F0010313
:10330C00012B07D17B681B686FF001021A6178688A
:10331C00FEF758F97B681B681B6903F08003802B50
:10332C000ED17B681B68DB6803F08003802B07D110
:10333C007B681B686FF080021A61786800F0E9FC0A
:10334C007B681B681B6903F04003402B0ED17B6824
:10335C001B68DB6803F04003402B07D17B681B68BC
:10336C006FF040021A61786800F0BEF97B681B6848
:10337C001B6903F02003202B0ED17B681B68DB68D4
:10338C0003F02003202B07D17B681B686FF0200211
:10339C001A61786800F0B4FC00BF0837BD4680BDE8
:1033AC0080B586B000AFF860B9607A600023FB7519
:1033BC00FB6893F83C30012B01D10223AEE0FB6893
:1033CC00012283F83C207B680C2B00F29F8001A229
:1033DC0052F823F015340008193500081935000887
:1033EC00193500085534000819350008193500083E
:1033FC0019350008973400081935000819350008EC
:10340C0019350008D7340008FB681B68B9681846E2
:10341C0000F0D6F9FB681B689A69FB681B6842F0E0
:10342C0008029A61FB681B689A69FB681B6822F0AA
:10343C0004029A61FB681B689969BB681A69FB688E
:10344C001B680A439A6164E0FB681B68B9681846FC
:10345C0000F01CFAFB681B689A69FB681B6842F455
:10346C0000629A61FB681B689A69FB681B6822F40E
:10347C0080629A61FB681B689969BB681B691A02B8
:10348C00FB681B680A439A6143E0FB681B68B968D8
:10349C00184600F065FAFB681B68DA69FB681B6864
:1034AC0042F00802DA61FB681B68DA69FB681B688A
:1034BC0022F00402DA61FB681B68D969BB681A69DF
:1034CC00FB681B680A43DA6123E0FB681B68B96878
:1034DC00184600F0AFFAFB681B68DA69FB681B68DA
:1034EC0042F40062DA61FB681B68DA69FB681B68EE
:1034FC0022F48062DA61FB681B68D969BB681B69BE
:10350C001A02FB681B680A43DA6102E00123FB75AF
:10351C0000BFFB68002283F83C20FB7D184618375F
:10352C00BD4680BD80B584B000AF786039600023A3
:10353C00FB737B6893F83C30012B01D10223B4E080
:10354C007B68012283F83C207B68022283F83D20B3
:10355C007B681B689B68BB60BB6823F07703BB6010
:10356C00BB6823F47F43BB607B681B68BA689A60B6
:10357C003B681B68B3F5005F3ED0B3F5005F00F20B
:10358C008780B3F5805F00F08680B3F5805F7FD8CD
:10359C00702B1AD0702B7BD8602B50D0602B77D827
:1035AC00502B3CD0502B73D8402B58D0402B6FD87D
:1035BC00302B64D0302B6BD8202B60D0202B67D8CD
:1035CC00002B5CD0102B5AD062E07B6818683B68EB
:1035DC0099683B685A683B68DB6800F0F0FA7B68D6
:1035EC001B689B68BB60BB6843F07703BB607B6860
:1035FC001B68BA689A604FE07B6818683B689968EA
:10360C003B685A683B68DB6800F0D9FA7B681B683A
:10361C009A687B681B6842F480429A603CE07B6845
:10362C0018683B6859683B68DB681A4600F050FA2A
:10363C007B681B685021184600F0A7FA2CE07B68C9
:10364C0018683B6859683B68DB681A4600F06EFAEC
:10365C007B681B686021184600F097FA1CE07B68B9
:10366C0018683B6859683B68DB681A4600F030FA0A
:10367C007B681B684021184600F087FA0CE07B68D9
:10368C001A683B681B681946104600F07EFA03E086
:10369C000123FB7300E000BF7B68012283F83D200F
:1036AC007B68002283F83C20FB7B18461037BD4614
:1036BC0080BD80B483B000AF786000BF0C37BD46CE
:1036CC0080BC704780B483B000AF786000BF0C370B
:1036DC00BD4680BC704780B483B000AF786000BF3B
:1036EC000C37BD4680BC704780B483B000AF7860A7
:1036FC0000BF0C37BD4680BC7047000080B485B05D
:10370C0000AF786039607B681B68FB607B68294A76
:10371C0093420BD07B68B3F1804F07D07B68264A6D
:10372C00934203D07B68254A934208D1FB6823F06F
:10373C007003FB603B685B68FA681343FB607B6853
:10374C001C4A93420BD07B68B3F1804F07D07B6847
:10375C00194A934203D07B68184A934208D1FB68FC
:10376C0023F44073FB603B68DB68FA681343FB602F
:10377C00FB6823F080023B685B691343FB607B684A
:10378C00FA681A603B689A687B68DA623B681A6868
:10379C007B689A627B68074A934203D13B681A693B
:1037AC007B681A637B6801225A6100BF1437BD46DF
:1037BC0080BC7047002C0140000400400008004011
:1037CC0080B487B000AF786039607B681B6A7B611E
:1037DC007B681B6A23F001027B681A627B685B685A
:1037EC003B617B689B69FB60FB6823F07003FB60AB
:1037FC00FB6823F00303FB603B681B68FA68134308
:10380C00FB607B6923F002037B613B689B687A69F0
:10381C0013437B617B681C4A93420CD17B6923F078
:10382C0008037B613B68DB687A6913437B617B69C6
:10383C0023F004037B617B68134A934211D13B69EB
:10384C0023F480733B613B6923F400733B613B6859
:10385C005B693A6913433B613B689B693A69134363
:10386C003B617B683A695A607B68FA689A613B688D
:10387C005A687B685A637B687A691A6200BF1C3786
:10388C00BD4680BC704700BF002C014080B487B09F
:10389C0000AF786039607B681B6A7B617B681B6A50
:1038AC0023F010027B681A627B685B683B617B6863
:1038BC009B69FB60FB6823F4E043FB60FB6823F42B
:1038CC004073FB603B681B681B02FA681343FB6088
:1038DC007B6923F020037B613B689B681B017A6941
:1038EC0013437B617B681D4A93420DD17B6923F0A6
:1038FC0080037B613B68DB681B017A6913437B6146
:10390C007B6923F040037B617B68144A934213D19B
:10391C003B6923F480633B613B6923F400633B61A7
:10392C003B685B699B003A6913433B613B689B694D
:10393C009B003A6913433B617B683A695A607B6828
:10394C00FA689A613B685A687B689A637B687A6903
:10395C001A6200BF1C37BD4680BC7047002C01406A
:10396C0080B487B000AF786039607B681B6A7B617C
:10397C007B681B6A23F480727B681A627B685B68C5
:10398C003B617B68DB69FB60FB6823F07003FB60C9
:10399C00FB6823F00303FB603B681B68FA68134366
:1039AC00FB607B6923F400737B613B689B681B02A3
:1039BC007A6913437B617B681D4A93420DD17B6905
:1039CC0023F400637B613B68DB681B027A69134359
:1039DC007B617B6923F480637B617B68144A93422F
:1039EC0013D13B6923F480533B613B6923F40053AF
:1039FC003B613B685B691B013A6913433B613B6864
:103A0C009B691B013A6913433B617B683A695A60B5
:103A1C007B68FA68DA613B685A687B68DA637B68B2
:103A2C007A691A6200BF1C37BD4680BC704700BF64
:103A3C00002C014080B487B000AF786039607B689F
:103A4C001B6A3B617B681B6A23F480527B681A6299
:103A5C007B685B687B617B68DB69FB60FB6823F4DC
:103A6C00E043FB60FB6823F44073FB603B681B681E
:103A7C001B02FA681343FB603B6923F400533B6160
:103A8C003B689B681B033A6913433B617B680F4A95
:103A9C00934209D17B6923F480437B613B685B696A
:103AAC009B017A6913437B617B687A695A607B68F6
:103ABC00FA68DA613B685A687B681A647B683A6911
:103ACC001A6200BF1C37BD4680BC7047002C0140F9
:103ADC0080B487B000AFF860B9607A60FB681B6A8D
:103AEC007B61FB681B6A23F00102FB681A62FB68AE
:103AFC009B693B613B6923F0F0033B617B681B01D5
:103B0C003A6913433B617B6923F00A037B617A6951
:103B1C00BB6813437B61FB683A699A61FB687A69FD
:103B2C001A6200BF1C37BD4680BC704780B487B09A
:103B3C0000AFF860B9607A60FB681B6A7B61FB6858
:103B4C001B6A23F01002FB681A62FB689B693B61DD
:103B5C003B6923F470433B617B681B033A69134355
:103B6C003B617B6923F0A0037B61BB681B017A6915
:103B7C0013437B61FB683A699A61FB687A691A6244
:103B8C0000BF1C37BD4680BC704780B485B000AF09
:103B9C00786039607B689B68FB60FB6823F070037E
:103BAC00FB603A68FB68134343F00703FB607B68D8
:103BBC00FA689A6000BF1437BD4680BC704780B469
:103BCC0087B000AFF860B9607A603B60FB689B68B7
:103BDC007B617B6923F47F437B613B681A027B68C2
:103BEC001A43BB6813437A6913437B61FB687A6998
:103BFC009A6000BF1C37BD4680BC704780B487B04C
:103C0C0000AFF860B9607A60BB6803F01F03012253
:103C1C0002FA03F37B61FB681A6A7B69DB431A4087
:103C2C00FB681A62FB681A6ABB6803F01F037968A9
:103C3C0001FA03F31A43FB681A6200BF1C37BD4636
:103C4C0080BC704780B485B000AF786039607B6809
:103C5C0093F83C30012B01D1022346E07B68012212
:103C6C0083F83C207B68022283F83D207B681B682C
:103C7C005B68FB607B681B689B68BB60FB6823F020
:103C8C007003FB603B681B68FA681343FB607B683E
:103C9C001B68FA685A607B681B68164A93420ED000
:103CAC007B681B68B3F1804F09D07B681B68124A94
:103CBC00934204D07B681B68104A93420CD1BB68BA
:103CCC0023F08003BB603B685B68BA681343BB603E
:103CDC007B681B68BA689A607B68012283F83D2078
:103CEC007B68002283F83C20002318461437BD461D
:103CFC0080BC7047002C01400004004000080040CC
:103D0C0080B483B000AF786000BF0C37BD4680BC78
:103D1C00704780B483B000AF786000BF0C37BD46ED
:103D2C0080BC704780B582B000AF78607B68002B98
:103D3C0001D1012342E07B6893F84130DBB2002BC8
:103D4C0006D17B68002283F840207868FDF796FF47
:103D5C007B68242283F841207B681B68DA687B68C7
:103D6C001B6822F40052DA60786800F071FD7B6801
:103D7C001B681A697B681B6822F490421A617B6885
:103D8C001B685A697B681B6822F02A025A617B689F
:103D9C001B68DA687B681B6842F40052DA607B6847
:103DAC0000225A647B68202283F841207B68202201
:103DBC0083F842207B6800225A6300231846083798
:103DCC00BD4680BD80B58AB002AFF860B9603B607B
:103DDC001346FB8000237B61FB6893F84130DBB218
:103DEC00202B6DD1BB68002B02D0FB88002B01D19E
:103DFC00012366E0FB6800225A64FB68212283F8E9
:103E0C004120FEF79DF87861FB68FA889A84FB687C
:103E1C00FA88DA84FB689B68B3F5805F08D1FB688D
:103E2C001B69002B04D10023FB61BB68BB6103E061
:103E3C00BB68FB610023BB612AE03B6800937B6994
:103E4C0000228021F86800F0F9FA0346002B01D01B
:103E5C00032336E0FB69002B0BD1BB691B881A4688
:103E6C00FB681B68C2F308025A60BB690233BB6172
:103E7C0007E0FB691A78FB681B685A60FB69013321
:103E8C00FB61FB68DB8C9BB2013B9AB2FB68DA846A
:103E9C00FB68DB8C9BB2002BCFD13B6800937B691A
:103EAC0000224021F86800F0C9FA0346002B01D02B
:103EBC00032306E0FB68202283F84120002300E066
:103ECC00022318462037BD4680BD000080B5BAB02D
:103EDC0000AF78607B681B681B68C7F8E4307B68B0
:103EEC001B68DB68C7F8E0307B681B685B69C7F848
:103EFC00DC300023C7F8D8300023C7F8D430D7F80B
:103F0C00E43003F00F03C7F8D830D7F8D830002BC3
:103F1C000FD1D7F8E43003F02003002B09D0D7F8E9
:103F2C00E03003F02003002B03D0786800F0D1FBC5
:103F3C005BE2D7F8D830002B00F0DE80D7F8DC300D
:103F4C0003F00103002B06D1D7F8E03003F4907393
:103F5C00002B00F0D180D7F8E43003F00103002BE4
:103F6C000BD0D7F8E03003F48073002B05D07B68BE
:103F7C005B6C43F001027B685A64D7F8E43003F0C1
:103F8C000403002B0BD0D7F8DC3003F00103002B1B
:103F9C0005D07B685B6C43F002027B685A64D7F8EF
:103FAC00E43003F00203002B0BD0D7F8DC3003F025
:103FBC000103002B05D07B685B6C43F004027B682B
:103FCC005A64D7F8E43003F00803002B11D0D7F86B
:103FDC00E03003F02003002B05D1D7F8DC3003F0E0
:103FEC000103002B05D07B685B6C43F008027B68F7
:103FFC005A647B685B6C002B00F0F281D7F8E430DC
:10400C0003F02003002B08D0D7F8E03003F0200396
:10401C00002B02D0786800F05CFB7B681B685B6946
:10402C0003F04003002B14BF01230023DBB2C7F8BD
:10403C00D4307B685B6C03F00803002B03D1D7F8FA
:10404C00D430002B4FD0786800F066FA7B681B6880
:10405C005B6903F04003002B41D07B681B68143371
:10406C00C7F89C30D7F89C3053E8003FC7F898301D
:10407C00D7F8983023F04003C7F8D0307B681B6822
:10408C001433D7F8D020C7F8A820C7F8A430D7F835
:10409C00A410D7F8A82041E80023C7F8A030D7F81F
:1040AC00A030002BD9D17B68DB6B002B13D07B6845
:1040BC00DB6B7E4A5A637B68DB6B1846FEF792F823
:1040CC000346002B16D07B68DB6B5B6B7A68D26B7C
:1040DC00104698470EE0786800F09CF90AE0786882
:1040EC0000F098F906E0786800F094F97B680022FB
:1040FC005A6475E100BF73E17B681B6B012B40F0C8
:10410C004F81D7F8E43003F01003002B00F0488106
:10411C00D7F8E03003F01003002B00F041810023AE
:10412C00BB607B681B681B68BB607B681B685B683B
:10413C00BB60BB687B681B685B6903F04003002BAA
:10414C0000F0B6807B68DB6B1B685B68A7F8BE3041
:10415C00B7F8BE30002B00F045817B689B8DB7F81B
:10416C00BE209A4280F03E817B68B7F8BE20DA858B
:10417C007B68DB6B9B69202B00F088807B681B685D
:10418C000C33C7F88830D7F8883053E8003FC7F8AD
:10419C008430D7F8843023F48073C7F8B8307B6848
:1041AC001B680C33D7F8B820C7F89420C7F89030A8
:1041BC00D7F89010D7F8942041E80023C7F88C303A
:1041CC00D7F88C30002BD9D17B681B6814337B67F4
:1041DC007B6F53E8003F3B673B6F23F00103C7F84D
:1041EC00B4307B681B681433D7F8B420C7F8802030
:1041FC00FB67F96FD7F8802041E80023BB67BB6FE2
:10420C00002BE1D17B681B6814333B663B6E53E893
:10421C00003FFB65FB6D23F04003C7F8B0307B68B3
:10422C001B681433D7F8B020FA66BB66B96EFA6E09
:10423C0041E800237B667B6E002BE3D17B68202258
:10424C0083F842207B6800221A637B681B680C335E
:10425C00FB64FB6C53E8003FBB64BB6C23F01003A6
:10426C00C7F8AC307B681B680C33D7F8AC20BA6548
:10427C007B65796DBA6D41E800233B653B6D002B86
:10428C00E3D17B68DB6B1846FDF771FF7B6802227C
:10429C005A637B689A8D7B68DB8D9BB2D31A9BB279
:1042AC001946786800F0BFF89CE000BFE9450008AB
:1042BC007B689A8D7B68DB8D9BB2D31AA7F8CE30C6
:1042CC007B68DB8D9BB2002B00F08E80B7F8CE3074
:1042DC00002B00F089807B681B680C33BB63BB6BC5
:1042EC0053E8003F7B637B6B23F49073C7F8C830B3
:1042FC007B681B680C33D7F8C8207A643B64396C34
:10430C007A6C41E80023FB63FB6B002BE3D17B68E9
:10431C001B6814337B627B6A53E8003F3B623B6A49
:10432C0023F00103C7F8C4307B681B681433D7F83B
:10433C00C4203A63FB62F96A3A6B41E80023BB6222
:10434C00BB6A002BE3D17B68202283F842207B6878
:10435C0000221A637B681B680C333B613B6953E892
:10436C00003FFB60FB6823F01003C7F8C0307B688C
:10437C001B680C33D7F8C020FA61BB61B969FA69C4
:10438C0041E800237B617B69002BE3D17B6802222F
:10439C005A63B7F8CE301946786800F044F823E039
:1043AC00D7F8E43003F08003002B09D0D7F8E030C5
:1043BC0003F08003002B03D0786800F023F914E09D
:1043CC00D7F8E43003F04003002B0ED0D7F8E030E0
:1043DC0003F04003002B08D0786800F062F904E089
:1043EC0000BF02E000BF00E000BFE837BD4680BD63
:1043FC0080B483B000AF786000BF0C37BD4680BC82
:10440C00704780B483B000AF786000BF0C37BD46F6
:10441C0080BC704780B483B000AF786000BF0C37AD
:10442C00BD4680BC704780B483B000AF78600B464B
:10443C007B8000BF0C37BD4680BC704780B590B008
:10444C0000AFF860B9603B601346FB7150E0BB6C89
:10445C00B3F1FF3F4CD0BB6C002B07D0FDF770FDC8
:10446C0002463B68D31ABA6C9A4241D2FB681B686D
:10447C000C33BB62BB6A53E8003F7B627B6A23F45C
:10448C00D073FB63FB681B680C33FA6B7A633B637A
:10449C00396B7A6B41E80023FB62FB6A002BE5D198
:1044AC00FB681B6814337B617B6953E8003F3B61FD
:1044BC003B6923F00103BB63FB681B681433BA6BC5
:1044CC003A62FB61F9693A6A41E80023BB61BB6956
:1044DC00002BE5D1FB68202283F84120FB682022C9
:1044EC0083F84220FB68002283F8402003230FE06E
:1044FC00FB681B681A68BB681340BA689A420CBF09
:10450C0001230023DBB21A46FB799A429FD0002389
:10451C0018464037BD4680BD80B495B000AF78607A
:10452C007B681B680C337B637B6B53E8003F3B63FE
:10453C003B6B23F49073FB647B681B680C33FA6C45
:10454C003A64FB63F96B3A6C41E80023BB63BB6BC9
:10455C00002BE5D17B681B6814333B623B6A53E844
:10456C00003FFB61FB6923F00103BB647B681B68A4
:10457C001433BA6CFA62BB62B96AFA6A41E8002376
:10458C007B627B6A002BE5D17B681B6B012B19D1FD
:10459C007B681B680C33FB60FB6853E8003FBB6017
:1045AC00BB6823F010037B647B681B680C337A6C4C
:1045BC00BA617B617969BA6941E800233B613B6967
:1045CC00002BE5D17B68202283F842207B680022F7
:1045DC001A6300BF5437BD4680BC704780B584B0A9
:1045EC0000AF78607B685B6AFB60FB680022DA8551
:1045FC00FB680022DA84F868FFF70CFF00BF103765
:10460C00BD4680BD80B485B000AF78607B6893F800
:10461C004130DBB2212B3ED17B689B68B3F5805FC8
:10462C0014D17B681B69002B10D17B681B6AFB6063
:10463C00FB681B881A467B681B68C2F308025A6029
:10464C007B681B6A9A1C7B681A6208E07B681B6A91
:10465C00591C7A6811621A787B681B685A607B68EF
:10466C00DB8C9BB2013B9BB27A681946D184002B40
:10467C000FD17B681B68DA687B681B6822F08002AC
:10468C00DA607B681B68DA687B681B6842F0400262
:10469C00DA60002300E0022318461437BD4680BCC4
:1046AC00704780B582B000AF78607B681B68DA68B1
:1046BC007B681B6822F04002DA607B68202283F85A
:1046CC0041207868FFF794FE002318460837BD4652
:1046DC0080BD80B58CB000AF78607B6893F84230B9
:1046EC00DBB2222B40F0AE807B689B68B3F5805F19
:1046FC0017D17B681B69002B13D10023FB627B68ED
:10470C009B6ABB627B681B685B689BB2C3F3080344
:10471C009AB2BB6A1A807B689B6A9A1C7B689A6205
:10472C0026E07B689B6AFB620023BB627B689B680C
:10473C00B3F5805F07D07B689B68002B0AD17B6840
:10474C001B69002B06D17B681B685B68DAB2FB6ABD
:10475C001A7008E07B681B685B68DBB203F07F03B0
:10476C00DAB2FB6A1A707B689B6A5A1C7B689A6285
:10477C007B68DB8D9BB2013B9BB27A681946D18575
:10478C00002B5DD17B681B68DA687B681B6822F0A4
:10479C002002DA607B681B68DA687B681B6822F48D
:1047AC008072DA607B681B685A697B681B6822F030
:1047BC0001025A617B68202283F842207B68002228
:1047CC005A637B681B6B012B35D17B6800221A6303
:1047DC007B681B680C337B617B6953E8003F3B6152
:1047EC003B6923F010037B627B681B680C337A6A8D
:1047FC003A62FB61F9693A6A41E80023BB61BB6923
:10480C00002BE5D17B681B681B6803F01003102B91
:10481C000AD10023FB607B681B681B68FB607B680C
:10482C001B685B68FB60FB687B689B8D194678682E
:10483C00FFF7F9FD02E07868FFF7E3FD002302E0E3
:10484C00002300E0022318463037BD4680BD00002F
:10485C0080B584B000AF78607B681B681B6923F45B
:10486C0040517B68DA687B681B680A431A617B6875
:10487C009A687B681B691A437B685B691343BB604E
:10488C007B681B68DB6823F4B05323F00C037A6855
:10489C001268B9680B43D3607B681B685B6923F4AF
:1048AC0040717B689A697B681B680A435A617B6814
:1048BC001B682C4A934203D1FEF79CFAF86002E085
:1048CC00FEF784FAF860FA6813469B0013449A00CA
:1048DC001A447B685B689B00B2FBF3F3224AA2FB91
:1048EC0003235B091901FA6813469B0013449A00D1
:1048FC001A447B685B689B00B2FBF3F21A4BA3FB78
:10490C0002035B09642000FB03F3D31A1B0132334F
:10491C00154AA2FB03235B0903F0F0031944FA6860
:10492C0013469B0013449A001A447B685B689B00F7
:10493C00B2FBF3F20C4BA3FB02035B09642000FBFC
:10494C0003F3D31A1B013233074AA2FB03235B097F
:10495C0003F00F027B681B680A449A6000BF103793
:10496C00BD4680BD003801401F85EB51014B1868D6
:10497C00704700BF5000002070B500260C4D0D4C48
:10498C00641BA410A64209D100F05CFC00260A4D61
:10499C000A4C641BA410A64205D170BD55F8043B0B
:1049AC0098470136EEE755F8043B98470136F2E795
:1049BC00105300081053000810530008145300083B
:1049CC0003460244934200D1704703F8011BF9E7F8
:1049DC000EB46FF0004100B59CB01DAB0290069078
:1049EC00079104910848094953F8042B0591006874
:1049FC0002A9019300F068F80022029B1A701CB007
:104A0C005DF804EB03B07047500000200802FFFF74
:104A1C002DE9F0478E6882469E420C4690461F4612
:104A2C0038D88A8912F4906F32D02568096901331D
:104A3C00A5EB010965694B4405EB450505EBD575FF
:104A4C006D109D4238BF1D46530531D5294600F0E7
:104A5C0053FB064650B90C234FF0FF30CAF8003018
:104A6C00A38943F04003A381BDE8F0874A4621693E
:104A7C0000F0CEFAA38923F4906343F08003A38162
:104A8C0026614E4426603E466561A5EB0905A5608E
:104A9C00BE4200D93E4632464146206800F0C6FA76
:104AAC00A36822689B1B32440020A3602260DBE7D2
:104ABC002A4600F07BFB06460028E1D150462169CE
:104ACC0000F0CEFAC7E700002DE9F04F98468B892D
:104ADC0007461B060D4614469DB00ED50B6963B9EF
:104AEC00402100F009FB2860286120B90C233B60B1
:104AFC004FF0FF30D1E040236B610023099320235A
:104B0C008DF8293030234FF00109CDF80C80DFF8F7
:104B1C00A4818DF82A3023469A4613F8012B0AB14A
:104B2C00252AF9D1BAEB040B0BD05B462246294659
:104B3C003846FFF76DFF013000F0AA80099A5A44FD
:104B4C0009929AF80030002B00F0A28000234FF05D
:104B5C00FF32CDE905230AF1010A049307938DF87E
:104B6C0053301A935446052214F8011B514800F097
:104B7C0041FA049AD8B9D00644BF20238DF853309B
:104B8C00110744BF2B238DF853309AF800302A2B91
:104B9C0015D0544600204FF00A0C079A214611F804
:104BAC00013B303B092B4ED9B0B1079214E0A0EB7E
:104BBC00080309FA03F31343A2460493D2E7039BB9
:104BCC00191D1B680391002BBBBF5B4242F0020214
:104BDC0007930793B8BF049223782E2B0CD16378DC
:104BEC002A2B35D1039B02341A1D1B680392002B10
:104BFC00B8BF4FF0FF330593DFF8C8A0032250462F
:104C0C00217800F0F7F940B14023A0EB0A0003FA39
:104C1C0000F0049B01340343049314F8011B062297
:104C2C0025488DF8281000F0E5F9002838D0234BE2
:104C3C001BBB039B073323F0070308330393099B28
:104C4C003344099367E70C4601200CFB0232A5E7BD
:104C5C0000234FF00A0C194601340593204610F836
:104C6C00012B303A092A03D9002BC5D00591C3E793
:104C7C00044601230CFB0121F0E703AB00932A4609
:104C8C0038460F4B04A9AFF30080421C0646D6D120
:104C9C00AB895B063FF52CAF09981DB0BDE8F08FD2
:104CAC0003AB00932A463846054B04A900F07CF868
:104CBC00EBE700BFDA520008E452000800000000E5
:104CCC001D4A0008E05200082DE9F04716469946A7
:104CDC008A680B6907469342B8BF1346336091F854
:104CEC0043200C46DDF820800AB101333360236881
:104CFC00990642BF336802333360256815F0060508
:104D0C0006D104F1190AE36832689B1AAB4228DC1D
:104D1C0094F84320131E226818BF012392062DD449
:104D2C004946384604F14302C047013020D023687D
:104D3C00E56803F00603042B18BF002532684FF01A
:104D4C000006A36808BFAD1A226908BF25EAE575FD
:104D5C009342C4BF9B1AED181A34B5421AD10020E5
:104D6C0008E00123524649463846C047013003D17A
:104D7C004FF0FF30BDE8F0870135C4E73020E11873
:104D8C0081F843005A1C94F845102244023382F8EF
:104D9C004310C5E70123224649463846C047013037
:104DAC00E6D00136D9E700002DE9FF470C46277EF7
:104DBC009146782F80469A460C9904F1430207D805
:104DCC00622F0AD8002F00F0D980582F00F0A48051
:104DDC0004F1420684F842703AE0A7F16303152B04
:104DEC00F6D801A050F823F04D4E0008614E000893
:104DFC00DD4D0008DD4D0008DD4D0008DD4D0008DF
:104E0C00614E0008DD4D0008DD4D0008DD4D000849
:104E1C00DD4D00086F4F0008914E0008514F0008FF
:104E2C00DD4D0008DD4D0008914F0008DD4D0008F8
:104E3C00914E0008DD4D0008DD4D0008594F00086B
:104E4C000B6804F142061A1D1B680A6084F8423094
:104E5C000123A4E0256808682E0600F104030AD596
:104E6C0005680B60002D03DA2D236D4284F8433066
:104E7C000A235E4819E015F0400F05680B6018BF57
:104E8C002DB2EFE70B682568181D0860280601D5C0
:104E9C001D6802E06906FBD51D886F2F0CBF082327
:104EAC000A235248002184F843106668002EA8BFDC
:104EBC002168A660A4BF21F0040121600DB9002E69
:104ECC004DD01646B5FBF3F103FB1157C75D06F841
:104EDC00017D2F46BB420D46F4D9082B0BD123681C
:104EEC00DF0708D5236961689942DEBF302306F8D5
:104EFC00013C06F1FF36921B22614B46214640468F
:104F0C00CDF800A003AAFFF7DFFE01304CD14FF023
:104F1C00FF3004B0BDE8F087344884F845700E6863
:104F2C00236856F8045B1F060E6014D5D90744BFDE
:104F3C0043F0200323601DB9236823F02003236072
:104F4C001023AFE7236843F020032360782328481D
:104F5C0084F84530E3E75E0648BFADB2E6E7164697
:104F6C00BBE70B6826681D1D60690D6035061B6864
:104F7C0001D5186002E07106FBD518800023164697
:104F8C002361BAE70B681A1D0A601E6800213046BF
:104F9C00626800F02FF808B1801B606063682361C1
:104FAC00002384F84330A8E732464946404623693B
:104FBC00D0470130ABD023689B0713D4E068039B28
:104FCC009842B8BF1846A4E70123324649464046EA
:104FDC00D04701309BD00135E36803995B1AAB4293
:104FEC00F2DCEBE7002504F11906F5E7EB520008BB
:104FFC00FC520008034610B5C9B20244934218464D
:10500C0001D1002003E0047801338C42F6D110BDAD
:10501C000A44914200F1FF3300D1704710B511F8EA
:10502C00014B914203F8014FF9D110BD884210B5E4
:10503C0001EB020402D98442234607D8431EA14245
:10504C0008D011F8012B03F8012FF8E701460244B0
:10505C008A4200D110BD13F8014D02F8014DF7E75B
:10506C0038B50546002943D051F8043C0C1F002BE1
:10507C00B8BFE41800F0D0F81E4A1368104633B9D4
:10508C00636014602846BDE8384000F0CBB8A342FA
:10509C000AD921686218934201BF1A685B685218DA
:1050AC00226063600460EDE71A465B680BB1A342B3
:1050BC00FAD911685018A0420BD12068014450183D
:1050CC0083421160DED118685B6801441160536043
:1050DC00D8E702D90C232B60D4E7206821188B4227
:1050EC0001BF19685B680918216063605460C9E7E7
:1050FC0038BD00BF28020020F8B5CD1C25F00305F3
:10510C0008350C2D38BF0C25002D064601DBA942B5
:10511C0003D90C2333600020F8BD00F07DF8214941
:10512C000A6814469CB9204F3B6823B92146304687
:10513C0000F062F838602946304600F05DF8431CF8
:10514C0023D10C233046336000F06CF8E3E723687E
:10515C005B1B17D40B2B03D923601C44256004E084
:10516C006368A2420CBF0B605360304600F05AF8E3
:10517C0004F10B00231D20F00700C21ACCD01B1A1F
:10518C00A350C9E722466468CCE7C41C24F003048E
:10519C00A042E3D0211A304600F02EF80130DDD1C8
:1051AC00CFE700BF280200202C020020F8B50746EC
:1051BC0014460E4621B91146BDE8F840FFF79CBFD6
:1051CC0022B9FFF74DFF25462846F8BD00F030F810
:1051DC00A0420FD221463846FFF78EFF0546002825
:1051EC00F2D031462246FFF713FF31463846FFF71F
:1051FC0037FFE9E73546E7E738B50023054D0446A8
:10520C0008462B60FCF7D2FD431C02D12B6803B17E
:10521C00236038BD18030020014800F011B800BF0E
:10522C0020030020014800F00CB800BF2003002030
:10523C0051F8043C181F002BBCBF0B58C01870470A
:10524C0070477047F8B500BFF8BC08BC9E46704765
:0C525C00F8B500BFF8BC08BC9E467047C7
:105268000D0A2137534547313A202564230D0A009A
:105278000D0A2137534547323A202564230D0A0A7F
:105288000A0000000D0A2137534547313A202564AA
:10529800230D0A000D0A2137534547323A20256469
:1052A800230D0A0A0A0000000000000000000000A8
:1052B80001020304060708090000000001020304B4
:1052C80002030405060708090A0B0C0D0E0F10103F
:1052D8000102232D302B2000686C4C006566674561
:1052E8004647003031323334353637383941424356
:1052F8004445460030313233343536373839616207
:0853080063646566000000000B
:04531000310100085F
:045314000D0100087F
:1053180001000000900100002C010000C8000000FE
:105328006400000032000000010000008813000043
:10533800D0070000B80B00000100000001000200C7
:105348001000010000080140000801400008014069
:10535800000C01400024F4001000000001000000CF
:1053680054000020000000000000000000000000C1
:105378000000000000000000000000000000000025
:105388000000000000000000000000000000000015
:105398000000000000000000000000000000000005
:1053A80000000000000000000000000000000000F5
:1053B80000000000000000000000000000000000E5
:0453C80000000000E1
:0400000508001E5180
:00000001FF
